{
  "contractName": "DIDRegistry",
  "abi": [
    {
      "anonymous": false,
      "inputs": [
        {
          "indexed": true,
          "internalType": "address",
          "name": "owner",
          "type": "address"
        },
        {
          "indexed": false,
          "internalType": "string",
          "name": "did",
          "type": "string"
        },
        {
          "indexed": false,
          "internalType": "string",
          "name": "document",
          "type": "string"
        }
      ],
      "name": "DIDRegistered",
      "type": "event"
    },
    {
      "anonymous": false,
      "inputs": [
        {
          "indexed": true,
          "internalType": "address",
          "name": "owner",
          "type": "address"
        },
        {
          "indexed": false,
          "internalType": "string",
          "name": "did",
          "type": "string"
        },
        {
          "indexed": false,
          "internalType": "string",
          "name": "document",
          "type": "string"
        }
      ],
      "name": "DIDUpdated",
      "type": "event"
    },
    {
      "inputs": [
        {
          "internalType": "string",
          "name": "_did",
          "type": "string"
        },
        {
          "internalType": "string",
          "name": "_document",
          "type": "string"
        }
      ],
      "name": "registerDID",
      "outputs": [],
      "stateMutability": "nonpayable",
      "type": "function"
    },
    {
      "inputs": [
        {
          "internalType": "string",
          "name": "_did",
          "type": "string"
        },
        {
          "internalType": "string",
          "name": "_document",
          "type": "string"
        }
      ],
      "name": "updateDID",
      "outputs": [],
      "stateMutability": "nonpayable",
      "type": "function"
    },
    {
      "inputs": [
        {
          "internalType": "address",
          "name": "_owner",
          "type": "address"
        }
      ],
      "name": "getDID",
      "outputs": [
        {
          "internalType": "string",
          "name": "",
          "type": "string"
        },
        {
          "internalType": "string",
          "name": "",
          "type": "string"
        },
        {
          "internalType": "uint256",
          "name": "",
          "type": "uint256"
        }
      ],
      "stateMutability": "view",
      "type": "function",
      "constant": true
    }
  ],
  "bytecode": "0x608060405234801561000f575f80fd5b50610c3d8061001d5f395ff3fe608060405234801561000f575f80fd5b506004361061003f575f3560e01c80637e5c39e914610043578063b42a02b51461005f578063f64e30b01461007b575b5f80fd5b61005d60048036038101906100589190610669565b6100ad565b005b61007960048036038101906100749190610669565b61021b565b005b61009560048036038101906100909190610739565b610389565b6040516100a4939291906107f6565b60405180910390f35b5f805f3373ffffffffffffffffffffffffffffffffffffffff1673ffffffffffffffffffffffffffffffffffffffff1681526020019081526020015f205f0180546100f790610866565b905014610139576040517f08c379a0000000000000000000000000000000000000000000000000000000008152600401610130906108e0565b60405180910390fd5b6040518060600160405280838152602001828152602001428152505f803373ffffffffffffffffffffffffffffffffffffffff1673ffffffffffffffffffffffffffffffffffffffff1681526020019081526020015f205f820151815f0190816101a39190610a9b565b5060208201518160010190816101b99190610a9b565b50604082015181600201559050503373ffffffffffffffffffffffffffffffffffffffff167f9f9e551d0f9d37cbfd9f18d5bffe17f0ab26bf932ac76ad9c6b2f573cae3dff2838360405161020f929190610b6a565b60405180910390a25050565b5f805f3373ffffffffffffffffffffffffffffffffffffffff1673ffffffffffffffffffffffffffffffffffffffff1681526020019081526020015f205f01805461026590610866565b9050116102a7576040517f08c379a000000000000000000000000000000000000000000000000000000000815260040161029e90610be9565b60405180910390fd5b6040518060600160405280838152602001828152602001428152505f803373ffffffffffffffffffffffffffffffffffffffff1673ffffffffffffffffffffffffffffffffffffffff1681526020019081526020015f205f820151815f0190816103119190610a9b565b5060208201518160010190816103279190610a9b565b50604082015181600201559050503373ffffffffffffffffffffffffffffffffffffffff167f8a349d0aaf30faae66d032977cc9409a8d7676460eabf8c0947986b5d8a48d8c838360405161037d929190610b6a565b60405180910390a25050565b6060805f805f808673ffffffffffffffffffffffffffffffffffffffff1673ffffffffffffffffffffffffffffffffffffffff1681526020019081526020015f206040518060600160405290815f820180546103e490610866565b80601f016020809104026020016040519081016040528092919081815260200182805461041090610866565b801561045b5780601f106104325761010080835404028352916020019161045b565b820191905f5260205f20905b81548152906001019060200180831161043e57829003601f168201915b5050505050815260200160018201805461047490610866565b80601f01602080910402602001604051908101604052809291908181526020018280546104a090610866565b80156104eb5780601f106104c2576101008083540402835291602001916104eb565b820191905f5260205f20905b8154815290600101906020018083116104ce57829003601f168201915b505050505081526020016002820154815250509050805f015181602001518260400151935093509350509193909250565b5f604051905090565b5f80fd5b5f80fd5b5f80fd5b5f80fd5b5f601f19601f8301169050919050565b7f4e487b71000000000000000000000000000000000000000000000000000000005f52604160045260245ffd5b61057b82610535565b810181811067ffffffffffffffff8211171561059a57610599610545565b5b80604052505050565b5f6105ac61051c565b90506105b88282610572565b919050565b5f67ffffffffffffffff8211156105d7576105d6610545565b5b6105e082610535565b9050602081019050919050565b828183375f83830152505050565b5f61060d610608846105bd565b6105a3565b90508281526020810184848401111561062957610628610531565b5b6106348482856105ed565b509392505050565b5f82601f8301126106505761064f61052d565b5b81356106608482602086016105fb565b91505092915050565b5f806040838503121561067f5761067e610525565b5b5f83013567ffffffffffffffff81111561069c5761069b610529565b5b6106a88582860161063c565b925050602083013567ffffffffffffffff8111156106c9576106c8610529565b5b6106d58582860161063c565b9150509250929050565b5f73ffffffffffffffffffffffffffffffffffffffff82169050919050565b5f610708826106df565b9050919050565b610718816106fe565b8114610722575f80fd5b50565b5f813590506107338161070f565b92915050565b5f6020828403121561074e5761074d610525565b5b5f61075b84828501610725565b91505092915050565b5f81519050919050565b5f82825260208201905092915050565b5f5b8381101561079b578082015181840152602081019050610780565b5f8484015250505050565b5f6107b082610764565b6107ba818561076e565b93506107ca81856020860161077e565b6107d381610535565b840191505092915050565b5f819050919050565b6107f0816107de565b82525050565b5f6060820190508181035f83015261080e81866107a6565b9050818103602083015261082281856107a6565b905061083160408301846107e7565b949350505050565b7f4e487b71000000000000000000000000000000000000000000000000000000005f52602260045260245ffd5b5f600282049050600182168061087d57607f821691505b6020821081036108905761088f610839565b5b50919050565b7f44494420616c72656164792072656769737465726564000000000000000000005f82015250565b5f6108ca60168361076e565b91506108d582610896565b602082019050919050565b5f6020820190508181035f8301526108f7816108be565b9050919050565b5f819050815f5260205f209050919050565b5f6020601f8301049050919050565b5f82821b905092915050565b5f6008830261095a7fffffffffffffffffffffffffffffffffffffffffffffffffffffffffffffffff8261091f565b610964868361091f565b95508019841693508086168417925050509392505050565b5f819050919050565b5f61099f61099a610995846107de565b61097c565b6107de565b9050919050565b5f819050919050565b6109b883610985565b6109cc6109c4826109a6565b84845461092b565b825550505050565b5f90565b6109e06109d4565b6109eb8184846109af565b505050565b5b81811015610a0e57610a035f826109d8565b6001810190506109f1565b5050565b601f821115610a5357610a24816108fe565b610a2d84610910565b81016020851015610a3c578190505b610a50610a4885610910565b8301826109f0565b50505b505050565b5f82821c905092915050565b5f610a735f1984600802610a58565b1980831691505092915050565b5f610a8b8383610a64565b9150826002028217905092915050565b610aa482610764565b67ffffffffffffffff811115610abd57610abc610545565b5b610ac78254610866565b610ad2828285610a12565b5f60209050601f831160018114610b03575f8415610af1578287015190505b610afb8582610a80565b865550610b62565b601f198416610b11866108fe565b5f5b82811015610b3857848901518255600182019150602085019450602081019050610b13565b86831015610b555784890151610b51601f891682610a64565b8355505b6001600288020188555050505b505050505050565b5f6040820190508181035f830152610b8281856107a6565b90508181036020830152610b9681846107a6565b90509392505050565b7f444944206e6f74207265676973746572656400000000000000000000000000005f82015250565b5f610bd360128361076e565b9150610bde82610b9f565b602082019050919050565b5f6020820190508181035f830152610c0081610bc7565b905091905056fea264697066735822122021f3293113f643c9a6f1c1ae75bda94d4876bcf27b5c0406b4b474ce6b1f535d64736f6c63430008150033",
  "immutableReferences": {},
  "source": "// spdx-license-identifier: MIT\npragma solidity ^0.8.0;\n\ncontract DIDRegistry {\n    struct DIDDocument {\n        string did;\n        string document;\n        uint256 updatedAt;\n    }\n\n    mapping(address => DIDDocument) private didDocuments;\n\n    event DIDRegistered(address indexed owner, string did, string document);\n    event DIDUpdated(address indexed owner, string did, string document);\n\n    function registerDID(string memory _did, string memory _document) public {\n        require(bytes(didDocuments[msg.sender].did).length == 0, \"DID already registered\");\n        didDocuments[msg.sender] = DIDDocument(_did, _document, block.timestamp);\n        emit DIDRegistered(msg.sender, _did, _document);\n    }\n\n    function updateDID(string memory _did, string memory _document) public {\n        require(bytes(didDocuments[msg.sender].did).length > 0, \"DID not registered\");\n        didDocuments[msg.sender] = DIDDocument(_did, _document, block.timestamp);\n        emit DIDUpdated(msg.sender, _did, _document);\n    }\n\n    function getDID(address _owner) public view returns (string memory, string memory, uint256) {\n        DIDDocument memory doc = didDocuments[_owner];\n        return (doc.did, doc.document, doc.updatedAt);\n    }\n}\n",
  "sourcePath": "/home/devin/blockchain/DID-system/did/contracts/DIDRegistry.sol",
  "compiler": {
    "name": "solc",
    "version": "0.8.21+commit.d9974bed.Emscripten.clang"
  },
  "schemaVersion": "3.4.16",
  "updatedAt": "2024-09-13T02:06:26.123Z",
  "networkType": "ethereum",
  "devdoc": {
    "kind": "dev",
    "methods": {},
    "version": 1
  },
  "userdoc": {
    "kind": "user",
    "methods": {},
    "version": 1
  }
}